S0110000507974686F6E4156522E73726563A8
S11300000C9434000C943E000C943E000C943E007E
S11300100C943E000C943E000C943E000C943E0064
S11300200C943E000C943E000C943E000C943E0054
S11300300C943E000C943E000C943E000C943E0044
S11300400C943E000C943E000C943E000C943E0034
S11300500C943E000C943E000C943E000C943E0024
S11300600C943E000C943E0011241FBECFEFD8E048
S1130070DEBFCDBF0E9492000C941C010C940000C2
S11300809093C5008093C40088E18093C1008EE002
S11300908093C2000895E0ECF0E0908195FFFDCFDD
S11300A08093C6000895E0ECF0E080818823ECF7AB
S11300B08091C600089584B18C6284B983E58CBDB7
S11300C008958EBD0DB407FEFDCF08950E94610012
S11300D00E9453000E9461000E9453000E9461002C
S11300E00E9453000E9461008FE19EE40197F1F7A2
S11300F000C0000008958EBD0DB407FEFDCF8EB57F
S113010008950E9461000E9453000E9461000E94B1
S113011053000E9461000E9453000E947B000E94D1
S11301204B0008950E945B0080E190E00E94400033
S1130130219A299A0E9453008D3409F445C0C8F4C9
S1130140803309F46DC048F4803209F45DC088320C
S113015009F456C0823071F725C08034E9F120F4E7
S1130160883309F465C0E6CF883491F18C34E1F129
S1130170E1CF803CE9F170F4883509F44DC020F4F6
S1130180803509F451C0D6CF803A09F441C08C3A85
S113019099F0D0CF823C81F118F1803F89F08F3FF4
S11301A031F0C8CF299882E00E944B00C3CF299A2E
S11301B08FEF0E944B00BECF8CEA0E946600BACF3C
S11301C080EF0E946600B6CF8DE40E946600B2CF35
S11301D088E40E946600AECF80E40E946600AACF45
S11301E081EC0E946600A6CF8CE40E946600A2CF38
S11301F080EC0E9466009ECF82EC0E9466009ACF3B
S113020088E20E94810096CF80E20E94810092CF12
S113021080EA0E9481008ECF88E50E9481008ACF07
S113022080E30E94810086CF80E50E94810082CF16
S10F023088E30E9481007ECFF894FFCF89
S9030000FC
